{
  "transactions": [
    {
      "hash": "0xf382a3186f4f67e475df1ae3b46d6642ee6f5375b6250aea95ac53884015402a",
      "transactionType": "CALL",
      "contractName": null,
      "contractAddress": "0xcd8af4a0f29cf7966c051542905f66f5dca9052f",
      "function": "approve(address,uint256)",
      "arguments": [
        "0xEA186EE188E7c09cf697e31AFAAFd305C11989eD",
        "1000000000000000000"
      ],
      "transaction": {
        "from": "0x3cee531d7d776d3370484a881be380dea317af9e",
        "to": "0xcd8af4a0f29cf7966c051542905f66f5dca9052f",
        "gas": "0x96b2",
        "value": "0x0",
        "input": "0x095ea7b3000000000000000000000000ea186ee188e7c09cf697e31afaafd305c11989ed0000000000000000000000000000000000000000000000000de0b6b3a7640000",
        "nonce": "0x121",
        "chainId": "0xaa36a7"
      },
      "additionalContracts": [],
      "isFixedGasLimit": false
    },
    {
      "hash": "0x814b5b7451a4e36abee822d0003a84d4e20f56e0ce0c5f42494f8be3b4d84491",
      "transactionType": "CALL",
      "contractName": null,
      "contractAddress": "0xea186ee188e7c09cf697e31afaafd305c11989ed",
      "function": "StakeWETH(uint256)",
      "arguments": [
        "500000000000000000"
      ],
      "transaction": {
        "from": "0x3cee531d7d776d3370484a881be380dea317af9e",
        "to": "0xea186ee188e7c09cf697e31afaafd305c11989ed",
        "gas": "0x23a22",
        "value": "0x0",
        "input": "0x6e35c74000000000000000000000000000000000000000000000000006f05b59d3b20000",
        "nonce": "0x122",
        "chainId": "0xaa36a7"
      },
      "additionalContracts": [],
      "isFixedGasLimit": false
    },
    {
      "hash": "0x5a9371990e73b1449866fc391236212dd6d90fa054fe1b1900ad7be43e12bc37",
      "transactionType": "CALL",
      "contractName": null,
      "contractAddress": "0xea186ee188e7c09cf697e31afaafd305c11989ed",
      "function": "StakeETH()",
      "arguments": [],
      "transaction": {
        "from": "0x3cee531d7d776d3370484a881be380dea317af9e",
        "to": "0xea186ee188e7c09cf697e31afaafd305c11989ed",
        "gas": "0xc103",
        "value": "0x3e871b540c001",
        "input": "0x78e7ed2f",
        "nonce": "0x123",
        "chainId": "0xaa36a7"
      },
      "additionalContracts": [],
      "isFixedGasLimit": false
    },
    {
      "hash": "0x094cdfc5e78030a4d75c7f2916ec241489476e39640cf7d6a44aae827e99adb2",
      "transactionType": "CALL",
      "contractName": null,
      "contractAddress": "0xea186ee188e7c09cf697e31afaafd305c11989ed",
      "function": "Unstake(uint256)",
      "arguments": [
        "1100000000000000"
      ],
      "transaction": {
        "from": "0x3cee531d7d776d3370484a881be380dea317af9e",
        "to": "0xea186ee188e7c09cf697e31afaafd305c11989ed",
        "gas": "0xd247",
        "value": "0x0",
        "input": "0xf1f1db1e0000000000000000000000000000000000000000000000000003e871b540c000",
        "nonce": "0x124",
        "chainId": "0xaa36a7"
      },
      "additionalContracts": [],
      "isFixedGasLimit": false
    }
  ],
  "receipts": [
    {
      "status": "0x1",
      "cumulativeGasUsed": "0x7e2fba",
      "logs": [
        {
          "address": "0xcd8af4a0f29cf7966c051542905f66f5dca9052f",
          "topics": [
            "0x8c5be1e5ebec7d5bd14f71427d1e84f3dd0314c0f7b2291e5b200ac8c7c3b925",
            "0x0000000000000000000000003cee531d7d776d3370484a881be380dea317af9e",
            "0x000000000000000000000000ea186ee188e7c09cf697e31afaafd305c11989ed"
          ],
          "data": "0x0000000000000000000000000000000000000000000000000de0b6b3a7640000",
          "blockHash": "0xc3fecda7251bdc254d8a17f7d7417a6dab2a2f0ba0da991963609acaf26aa839",
          "blockNumber": "0x6a540a",
          "transactionHash": "0xf382a3186f4f67e475df1ae3b46d6642ee6f5375b6250aea95ac53884015402a",
          "transactionIndex": "0x3b",
          "logIndex": "0x43",
          "removed": false
        }
      ],
      "logsBloom": "0x80000000000000000000000000000000000000000000000000000200000000000000000000000000000000000000000000000000000000000000000000200000000000000000000000000000000000000000000000000000000000000001000000000000000002000000000000000000000000000000000000000000010000000000000000001000000000000000000000000000000000000000000000080000020000000000000000000000000000000000000000000000000000000000000000000000000000000000000000000000000000000000000000000000000000000010000000000000000004000000000000000000000000000000000000100000",
      "type": "0x2",
      "transactionHash": "0xf382a3186f4f67e475df1ae3b46d6642ee6f5375b6250aea95ac53884015402a",
      "transactionIndex": "0x3b",
      "blockHash": "0xc3fecda7251bdc254d8a17f7d7417a6dab2a2f0ba0da991963609acaf26aa839",
      "blockNumber": "0x6a540a",
      "gasUsed": "0x670b",
      "effectiveGasPrice": "0x10366f7bb",
      "from": "0x3cee531d7d776d3370484a881be380dea317af9e",
      "to": "0xcd8af4a0f29cf7966c051542905f66f5dca9052f",
      "contractAddress": null
    },
    {
      "status": "0x1",
      "cumulativeGasUsed": "0x7fcc7f",
      "logs": [],
      "logsBloom": "0x00000000000000000000000000000000000000000000000000000000000000000000000000000000000000000000000000000000000000000000000000000000000000000000000000000000000000000000000000000000000000000000000000000000000000000000000000000000000000000000000000000000000000000000000000000000000000000000000000000000000000000000000000000000000000000000000000000000000000000000000000000000000000000000000000000000000000000000000000000000000000000000000000000000000000000000000000000000000000000000000000000000000000000000000000000000",
      "type": "0x2",
      "transactionHash": "0x814b5b7451a4e36abee822d0003a84d4e20f56e0ce0c5f42494f8be3b4d84491",
      "transactionIndex": "0x3c",
      "blockHash": "0xc3fecda7251bdc254d8a17f7d7417a6dab2a2f0ba0da991963609acaf26aa839",
      "blockNumber": "0x6a540a",
      "gasUsed": "0x19cc5",
      "effectiveGasPrice": "0x10366f7bb",
      "from": "0x3cee531d7d776d3370484a881be380dea317af9e",
      "to": "0xea186ee188e7c09cf697e31afaafd305c11989ed",
      "contractAddress": null
    },
    {
      "status": "0x1",
      "cumulativeGasUsed": "0x805079",
      "logs": [],
      "logsBloom": "0x00000000000000000000000000000000000000000000000000000000000000000000000000000000000000000000000000000000000000000000000000000000000000000000000000000000000000000000000000000000000000000000000000000000000000000000000000000000000000000000000000000000000000000000000000000000000000000000000000000000000000000000000000000000000000000000000000000000000000000000000000000000000000000000000000000000000000000000000000000000000000000000000000000000000000000000000000000000000000000000000000000000000000000000000000000000",
      "type": "0x2",
      "transactionHash": "0x5a9371990e73b1449866fc391236212dd6d90fa054fe1b1900ad7be43e12bc37",
      "transactionIndex": "0x3d",
      "blockHash": "0xc3fecda7251bdc254d8a17f7d7417a6dab2a2f0ba0da991963609acaf26aa839",
      "blockNumber": "0x6a540a",
      "gasUsed": "0x83fa",
      "effectiveGasPrice": "0x10366f7bb",
      "from": "0x3cee531d7d776d3370484a881be380dea317af9e",
      "to": "0xea186ee188e7c09cf697e31afaafd305c11989ed",
      "contractAddress": null
    },
    {
      "status": "0x1",
      "cumulativeGasUsed": "0x80e8b7",
      "logs": [],
      "logsBloom": "0x00000000000000000000000000000000000000000000000000000000000000000000000000000000000000000000000000000000000000000000000000000000000000000000000000000000000000000000000000000000000000000000000000000000000000000000000000000000000000000000000000000000000000000000000000000000000000000000000000000000000000000000000000000000000000000000000000000000000000000000000000000000000000000000000000000000000000000000000000000000000000000000000000000000000000000000000000000000000000000000000000000000000000000000000000000000",
      "type": "0x2",
      "transactionHash": "0x094cdfc5e78030a4d75c7f2916ec241489476e39640cf7d6a44aae827e99adb2",
      "transactionIndex": "0x3e",
      "blockHash": "0xc3fecda7251bdc254d8a17f7d7417a6dab2a2f0ba0da991963609acaf26aa839",
      "blockNumber": "0x6a540a",
      "gasUsed": "0x983e",
      "effectiveGasPrice": "0x10366f7bb",
      "from": "0x3cee531d7d776d3370484a881be380dea317af9e",
      "to": "0xea186ee188e7c09cf697e31afaafd305c11989ed",
      "contractAddress": null
    }
  ],
  "libraries": [],
  "pending": [],
  "returns": {},
  "timestamp": 1730185792,
  "chain": 11155111,
  "commit": "fc47b59"
}