{
  "transactions": [
    {
      "hash": "0x21b30900bbfb10dea1ca7c7923a0268ba3704e0e885dfd02809baabacb4f2821",
      "transactionType": "CALL",
      "contractName": null,
      "contractAddress": "0x0c977186a3df2a7c8685110321da50db43c58cdb",
      "function": "unlock(bytes16)",
      "arguments": [
        "0xb18800000d9d09be651ecc7cf06c977100000000000000000000000000000000"
      ],
      "transaction": {
        "from": "0x3cee531d7d776d3370484a881be380dea317af9e",
        "to": "0x0c977186a3df2a7c8685110321da50db43c58cdb",
        "gas": "0x891d",
        "value": "0x0",
        "input": "0xe1afb08cb18800000d9d09be651ecc7cf06c977100000000000000000000000000000000",
        "nonce": "0x8e",
        "chainId": "0xaa36a7"
      },
      "additionalContracts": [],
      "isFixedGasLimit": false
    }
  ],
  "receipts": [
    {
      "status": "0x1",
      "cumulativeGasUsed": "0xb484cf",
      "logs": [],
      "logsBloom": "0x00000000000000000000000000000000000000000000000000000000000000000000000000000000000000000000000000000000000000000000000000000000000000000000000000000000000000000000000000000000000000000000000000000000000000000000000000000000000000000000000000000000000000000000000000000000000000000000000000000000000000000000000000000000000000000000000000000000000000000000000000000000000000000000000000000000000000000000000000000000000000000000000000000000000000000000000000000000000000000000000000000000000000000000000000000000",
      "type": "0x2",
      "transactionHash": "0x21b30900bbfb10dea1ca7c7923a0268ba3704e0e885dfd02809baabacb4f2821",
      "transactionIndex": "0x45",
      "blockHash": "0x841912aa55932422f8684f36cacc1c2ea83f9eb9a4547b55b12d995f9baf6e20",
      "blockNumber": "0x5d3f08",
      "gasUsed": "0x5dc1",
      "effectiveGasPrice": "0xa98adf",
      "from": "0x3cee531d7d776d3370484a881be380dea317af9e",
      "to": "0x0c977186a3df2a7c8685110321da50db43c58cdb",
      "contractAddress": null
    }
  ],
  "libraries": [],
  "pending": [],
  "returns": {},
  "timestamp": 1718427890,
  "chain": 11155111,
  "commit": "2e51800"
}