{
  "transactions": [
    {
      "hash": "0xe042edeadfedbe0cb1924352ef5968392d511dda1ba9076e5117e1519e1e53ea",
      "transactionType": "CREATE",
      "contractName": "King_exp",
      "contractAddress": "0x9c8cd52105a8f278acd9a9966ae690388a50a484",
      "function": null,
      "arguments": null,
      "transaction": {
        "from": "0x3cee531d7d776d3370484a881be380dea317af9e",
        "gas": "0x22280",
        "value": "0x0",
        "input": "0x608060405234801561001057600080fd5b5060fb8061001f6000396000f3fe608060405260043610601c5760003560e01c806302c6591d146021575b600080fd5b6030602c3660046097565b6032565b005b600080546001600160a01b0319166001600160a01b0383169081178255604051909134919081818185875af1925050503d8060008114608c576040519150601f19603f3d011682016040523d82523d6000602084013e6091565b606091505b50505050565b60006020828403121560a857600080fd5b81356001600160a01b038116811460be57600080fd5b939250505056fea2646970667358221220f70b9a45906e2b6e4eb4efc1860a4d4a17aea970c8602762650f102432eccedc64736f6c63430008110033",
        "nonce": "0x7b",
        "chainId": "0xaa36a7"
      },
      "additionalContracts": [],
      "isFixedGasLimit": false
    },
    {
      "hash": "0xd70614ec55d6d12e232513a07d5bb99eaadaca809932174efd31d4dc5154e830",
      "transactionType": "CALL",
      "contractName": "King_exp",
      "contractAddress": "0x9c8cd52105a8f278acd9a9966ae690388a50a484",
      "function": "pwn(address)",
      "arguments": [
        "0x1EaA3e9900C5De042B82e38d8A37B833151c09Cf"
      ],
      "transaction": {
        "from": "0x3cee531d7d776d3370484a881be380dea317af9e",
        "to": "0x9c8cd52105a8f278acd9a9966ae690388a50a484",
        "gas": "0x17b79",
        "value": "0x66",
        "input": "0x02c6591d0000000000000000000000001eaa3e9900c5de042b82e38d8a37b833151c09cf",
        "nonce": "0x7c",
        "chainId": "0xaa36a7"
      },
      "additionalContracts": [],
      "isFixedGasLimit": false
    }
  ],
  "receipts": [
    {
      "status": "0x1",
      "cumulativeGasUsed": "0x9b0fc7",
      "logs": [],
      "logsBloom": "0x00000000000000000000000000000000000000000000000000000000000000000000000000000000000000000000000000000000000000000000000000000000000000000000000000000000000000000000000000000000000000000000000000000000000000000000000000000000000000000000000000000000000000000000000000000000000000000000000000000000000000000000000000000000000000000000000000000000000000000000000000000000000000000000000000000000000000000000000000000000000000000000000000000000000000000000000000000000000000000000000000000000000000000000000000000000",
      "type": "0x2",
      "transactionHash": "0xe042edeadfedbe0cb1924352ef5968392d511dda1ba9076e5117e1519e1e53ea",
      "transactionIndex": "0x45",
      "blockHash": "0x62643c90c4bc8e7c977d39417354c5594d506084f4770ceb9bb9eaedd46c1edc",
      "blockNumber": "0x5d2f69",
      "gasUsed": "0x1a475",
      "effectiveGasPrice": "0x8d6b947d",
      "from": "0x3cee531d7d776d3370484a881be380dea317af9e",
      "to": null,
      "contractAddress": "0x9c8cd52105a8f278acd9a9966ae690388a50a484"
    },
    {
      "status": "0x1",
      "cumulativeGasUsed": "0x9c2283",
      "logs": [],
      "logsBloom": "0x00000000000000000000000000000000000000000000000000000000000000000000000000000000000000000000000000000000000000000000000000000000000000000000000000000000000000000000000000000000000000000000000000000000000000000000000000000000000000000000000000000000000000000000000000000000000000000000000000000000000000000000000000000000000000000000000000000000000000000000000000000000000000000000000000000000000000000000000000000000000000000000000000000000000000000000000000000000000000000000000000000000000000000000000000000000",
      "type": "0x2",
      "transactionHash": "0xd70614ec55d6d12e232513a07d5bb99eaadaca809932174efd31d4dc5154e830",
      "transactionIndex": "0x46",
      "blockHash": "0x62643c90c4bc8e7c977d39417354c5594d506084f4770ceb9bb9eaedd46c1edc",
      "blockNumber": "0x5d2f69",
      "gasUsed": "0x112bc",
      "effectiveGasPrice": "0x8d6b947d",
      "from": "0x3cee531d7d776d3370484a881be380dea317af9e",
      "to": "0x9c8cd52105a8f278acd9a9966ae690388a50a484",
      "contractAddress": null
    }
  ],
  "libraries": [],
  "pending": [],
  "returns": {},
  "timestamp": 1718378728,
  "chain": 11155111,
  "commit": "2e51800"
}