{
  "transactions": [
    {
      "hash": "0xb2be52b37fe0de20be4736efb9d601cd83acc3d5100df86ea2e544009a8a0df3",
      "transactionType": "CALL",
      "contractName": null,
      "contractAddress": "0x4e9d0924d3d267b5674f4d346089218489c5343c",
      "function": "flipSwitch(bytes)",
      "arguments": [
        "0x76227e12"
      ],
      "transaction": {
        "from": "0x3cee531d7d776d3370484a881be380dea317af9e",
        "to": "0x4e9d0924d3d267b5674f4d346089218489c5343c",
        "gas": "0x98b6",
        "value": "0x0",
        "input": "0x30c13ade0000000000000000000000000000000000000000000000000000000000000060000000000000000000000000000000000000000000000000000000000000000020606e1500000000000000000000000000000000000000000000000000000000000000000000000000000000000000000000000000000000000000000000000476227e1200000000000000000000000000000000000000000000000000000000",
        "nonce": "0x114",
        "chainId": "0xaa36a7"
      },
      "additionalContracts": [],
      "isFixedGasLimit": false
    }
  ],
  "receipts": [
    {
      "status": "0x1",
      "cumulativeGasUsed": "0x73deeb",
      "logs": [],
      "logsBloom": "0x00000000000000000000000000000000000000000000000000000000000000000000000000000000000000000000000000000000000000000000000000000000000000000000000000000000000000000000000000000000000000000000000000000000000000000000000000000000000000000000000000000000000000000000000000000000000000000000000000000000000000000000000000000000000000000000000000000000000000000000000000000000000000000000000000000000000000000000000000000000000000000000000000000000000000000000000000000000000000000000000000000000000000000000000000000000",
      "type": "0x2",
      "transactionHash": "0xb2be52b37fe0de20be4736efb9d601cd83acc3d5100df86ea2e544009a8a0df3",
      "transactionIndex": "0x31",
      "blockHash": "0x872168fa03e3749c0d55533a71e89dc52f8b2c8a982772b403aa3f71f368f2b0",
      "blockNumber": "0x6a5039",
      "gasUsed": "0x6e90",
      "effectiveGasPrice": "0x6c3706a8",
      "from": "0x3cee531d7d776d3370484a881be380dea317af9e",
      "to": "0x4e9d0924d3d267b5674f4d346089218489c5343c",
      "contractAddress": null
    }
  ],
  "libraries": [],
  "pending": [],
  "returns": {},
  "timestamp": 1730173421,
  "chain": 11155111,
  "commit": "fc47b59"
}