{
  "transactions": [
    {
      "hash": "0x660c06882cc3c5cd9be94ec56f1ac19d98121d4e1a8008f1066b8fbab0568f33",
      "transactionType": "CREATE",
      "contractName": "Myrobot",
      "contractAddress": "0x43d4fe455814149c908d25b4716e9deabbfa935f",
      "function": null,
      "arguments": [
        "0x5726a9834740399E2b89cDd5289f789F3e6737e0",
        "0xE17024bBA23DdBB37Ae12F5D00f4544b03c8125C"
      ],
      "transaction": {
        "from": "0x3cee531d7d776d3370484a881be380dea317af9e",
        "gas": "0x4be27",
        "value": "0x0",
        "input": "0x608060405234801561001057600080fd5b5060405161033e38038061033e83398101604081905261002f9161007c565b600080546001600160a01b039384166001600160a01b031991821617909155600180549290931691161790556100af565b80516001600160a01b038116811461007757600080fd5b919050565b6000806040838503121561008f57600080fd5b61009883610060565b91506100a660208401610060565b90509250929050565b610280806100be6000396000f3fe608060405234801561001057600080fd5b50600436106100415760003560e01c8063220ab6aa14610046578063d8670e1f1461005b578063fbfa77cf1461008a575b600080fd5b610059610054366004610159565b61009d565b005b60015461006e906001600160a01b031681565b6040516001600160a01b03909116815260200160405180910390f35b60005461006e906001600160a01b031681565b600080806100ae84600481886101de565b8101906100bb9190610208565b60005492955090935091506001600160a01b03908116908216036101395760015460405163087a43c160e01b81526001600160a01b0388811660048301529091169063087a43c190602401600060405180830381600087803b15801561012057600080fd5b505af1158015610134573d6000803e3d6000fd5b505050505b505050505050565b6001600160a01b038116811461015657600080fd5b50565b60008060006040848603121561016e57600080fd5b833561017981610141565b9250602084013567ffffffffffffffff8082111561019657600080fd5b818601915086601f8301126101aa57600080fd5b8135818111156101b957600080fd5b8760208285010111156101cb57600080fd5b6020830194508093505050509250925092565b600080858511156101ee57600080fd5b838611156101fb57600080fd5b5050820193919092039150565b60008060006060848603121561021d57600080fd5b833561022881610141565b925060208401359150604084013561023f81610141565b80915050925092509256fea2646970667358221220a12014acebef3be9e09e366892b0bf930b07be6dce18f7c70de920889714145164736f6c634300081400330000000000000000000000005726a9834740399e2b89cdd5289f789f3e6737e0000000000000000000000000e17024bba23ddbb37ae12f5d00f4544b03c8125c",
        "nonce": "0xf9",
        "chainId": "0xaa36a7"
      },
      "additionalContracts": [],
      "isFixedGasLimit": false
    },
    {
      "hash": "0x620c4a8d996d522a675c618e83c39ec310101115118e303867d7691af1208599",
      "transactionType": "CALL",
      "contractName": null,
      "contractAddress": "0xe17024bba23ddbb37ae12f5d00f4544b03c8125c",
      "function": "setDetectionBot(address)",
      "arguments": [
        "0x43d4fe455814149C908D25b4716e9deAbbfA935f"
      ],
      "transaction": {
        "from": "0x3cee531d7d776d3370484a881be380dea317af9e",
        "to": "0xe17024bba23ddbb37ae12f5d00f4544b03c8125c",
        "gas": "0xfb10",
        "value": "0x0",
        "input": "0x9e927c6800000000000000000000000043d4fe455814149c908d25b4716e9deabbfa935f",
        "nonce": "0xfa",
        "chainId": "0xaa36a7"
      },
      "additionalContracts": [],
      "isFixedGasLimit": false
    }
  ],
  "receipts": [
    {
      "status": "0x1",
      "cumulativeGasUsed": "0x104a7d3",
      "logs": [],
      "logsBloom": "0x00000000000000000000000000000000000000000000000000000000000000000000000000000000000000000000000000000000000000000000000000000000000000000000000000000000000000000000000000000000000000000000000000000000000000000000000000000000000000000000000000000000000000000000000000000000000000000000000000000000000000000000000000000000000000000000000000000000000000000000000000000000000000000000000000000000000000000000000000000000000000000000000000000000000000000000000000000000000000000000000000000000000000000000000000000000",
      "type": "0x2",
      "transactionHash": "0x660c06882cc3c5cd9be94ec56f1ac19d98121d4e1a8008f1066b8fbab0568f33",
      "transactionIndex": "0x78",
      "blockHash": "0x2e1e874188330924ab3486c16513fcba365dfff64b625f911663f42e1b0156f0",
      "blockNumber": "0x6a3b9a",
      "gasUsed": "0x3a62f",
      "effectiveGasPrice": "0x122258d7d",
      "from": "0x3cee531d7d776d3370484a881be380dea317af9e",
      "to": null,
      "contractAddress": "0x43d4fe455814149c908d25b4716e9deabbfa935f"
    },
    {
      "status": "0x1",
      "cumulativeGasUsed": "0x105537e",
      "logs": [],
      "logsBloom": "0x00000000000000000000000000000000000000000000000000000000000000000000000000000000000000000000000000000000000000000000000000000000000000000000000000000000000000000000000000000000000000000000000000000000000000000000000000000000000000000000000000000000000000000000000000000000000000000000000000000000000000000000000000000000000000000000000000000000000000000000000000000000000000000000000000000000000000000000000000000000000000000000000000000000000000000000000000000000000000000000000000000000000000000000000000000000",
      "type": "0x2",
      "transactionHash": "0x620c4a8d996d522a675c618e83c39ec310101115118e303867d7691af1208599",
      "transactionIndex": "0x79",
      "blockHash": "0x2e1e874188330924ab3486c16513fcba365dfff64b625f911663f42e1b0156f0",
      "blockNumber": "0x6a3b9a",
      "gasUsed": "0xabab",
      "effectiveGasPrice": "0x122258d7d",
      "from": "0x3cee531d7d776d3370484a881be380dea317af9e",
      "to": "0xe17024bba23ddbb37ae12f5d00f4544b03c8125c",
      "contractAddress": null
    }
  ],
  "libraries": [],
  "pending": [],
  "returns": {},
  "timestamp": 1730106628,
  "chain": 11155111,
  "commit": "9e4ba06"
}