{
  "transactions": [
    {
      "hash": "0x0ade45c86c0292a6102aca0af49b3f7a4dac1e6b3c69abb27889e2537f840638",
      "transactionType": "CALL",
      "contractName": null,
      "contractAddress": "0x07959073f93d728e4e639e67e4f100ba999f9040",
      "function": "approve(address,uint256)",
      "arguments": [
        "0x07959073F93D728E4e639e67E4f100BA999F9040",
        "1000"
      ],
      "transaction": {
        "from": "0x3cee531d7d776d3370484a881be380dea317af9e",
        "to": "0x07959073f93d728e4e639e67e4f100ba999f9040",
        "gas": "0x1e943",
        "value": "0x0",
        "input": "0x095ea7b300000000000000000000000007959073f93d728e4e639e67e4f100ba999f904000000000000000000000000000000000000000000000000000000000000003e8",
        "nonce": "0xd1",
        "chainId": "0xaa36a7"
      },
      "additionalContracts": [],
      "isFixedGasLimit": false
    },
    {
      "hash": "0x92ced43d6da28d447f6c451ef176c19fb277edd1f8aa8b9c2bded02f3ed10199",
      "transactionType": "CALL",
      "contractName": null,
      "contractAddress": "0x07959073f93d728e4e639e67e4f100ba999f9040",
      "function": "swap(address,address,uint256)",
      "arguments": [
        "0xe171Be09515e85eE9211381b5a0e8DdEB959f1af",
        "0x82dbff562b4870e61a5941ef4da8dB4BCfc636A6",
        "10"
      ],
      "transaction": {
        "from": "0x3cee531d7d776d3370484a881be380dea317af9e",
        "to": "0x07959073f93d728e4e639e67e4f100ba999f9040",
        "gas": "0x1b896",
        "value": "0x0",
        "input": "0xdf791e50000000000000000000000000e171be09515e85ee9211381b5a0e8ddeb959f1af00000000000000000000000082dbff562b4870e61a5941ef4da8db4bcfc636a6000000000000000000000000000000000000000000000000000000000000000a",
        "nonce": "0xd2",
        "chainId": "0xaa36a7"
      },
      "additionalContracts": [],
      "isFixedGasLimit": false
    },
    {
      "hash": "0xd64907c851b73b853507ed1f045d0e6f9c6e774a661a9aa49d372ac2301133cf",
      "transactionType": "CALL",
      "contractName": null,
      "contractAddress": "0x07959073f93d728e4e639e67e4f100ba999f9040",
      "function": "swap(address,address,uint256)",
      "arguments": [
        "0x82dbff562b4870e61a5941ef4da8dB4BCfc636A6",
        "0xe171Be09515e85eE9211381b5a0e8DdEB959f1af",
        "20"
      ],
      "transaction": {
        "from": "0x3cee531d7d776d3370484a881be380dea317af9e",
        "to": "0x07959073f93d728e4e639e67e4f100ba999f9040",
        "gas": "0x1ea9a",
        "value": "0x0",
        "input": "0xdf791e5000000000000000000000000082dbff562b4870e61a5941ef4da8db4bcfc636a6000000000000000000000000e171be09515e85ee9211381b5a0e8ddeb959f1af0000000000000000000000000000000000000000000000000000000000000014",
        "nonce": "0xd3",
        "chainId": "0xaa36a7"
      },
      "additionalContracts": [],
      "isFixedGasLimit": false
    },
    {
      "hash": "0xea441ac7b42d139b0dc8eca93e36cda8de3060489050589e9e998d515ba64118",
      "transactionType": "CALL",
      "contractName": null,
      "contractAddress": "0x07959073f93d728e4e639e67e4f100ba999f9040",
      "function": "swap(address,address,uint256)",
      "arguments": [
        "0xe171Be09515e85eE9211381b5a0e8DdEB959f1af",
        "0x82dbff562b4870e61a5941ef4da8dB4BCfc636A6",
        "24"
      ],
      "transaction": {
        "from": "0x3cee531d7d776d3370484a881be380dea317af9e",
        "to": "0x07959073f93d728e4e639e67e4f100ba999f9040",
        "gas": "0x206bd",
        "value": "0x0",
        "input": "0xdf791e50000000000000000000000000e171be09515e85ee9211381b5a0e8ddeb959f1af00000000000000000000000082dbff562b4870e61a5941ef4da8db4bcfc636a60000000000000000000000000000000000000000000000000000000000000018",
        "nonce": "0xd4",
        "chainId": "0xaa36a7"
      },
      "additionalContracts": [],
      "isFixedGasLimit": false
    },
    {
      "hash": "0x4aade53b70e5e783e400d0b0f28c23eb49d9ae63d09b23eda27b16c1f5b7444d",
      "transactionType": "CALL",
      "contractName": null,
      "contractAddress": "0x07959073f93d728e4e639e67e4f100ba999f9040",
      "function": "swap(address,address,uint256)",
      "arguments": [
        "0x82dbff562b4870e61a5941ef4da8dB4BCfc636A6",
        "0xe171Be09515e85eE9211381b5a0e8DdEB959f1af",
        "30"
      ],
      "transaction": {
        "from": "0x3cee531d7d776d3370484a881be380dea317af9e",
        "to": "0x07959073f93d728e4e639e67e4f100ba999f9040",
        "gas": "0x1ea9a",
        "value": "0x0",
        "input": "0xdf791e5000000000000000000000000082dbff562b4870e61a5941ef4da8db4bcfc636a6000000000000000000000000e171be09515e85ee9211381b5a0e8ddeb959f1af000000000000000000000000000000000000000000000000000000000000001e",
        "nonce": "0xd5",
        "chainId": "0xaa36a7"
      },
      "additionalContracts": [],
      "isFixedGasLimit": false
    },
    {
      "hash": "0xf9c539d9046bd20023a4b409268442d696f338787d6a4bd7ad6dcfee3706a260",
      "transactionType": "CALL",
      "contractName": null,
      "contractAddress": "0x07959073f93d728e4e639e67e4f100ba999f9040",
      "function": "swap(address,address,uint256)",
      "arguments": [
        "0xe171Be09515e85eE9211381b5a0e8DdEB959f1af",
        "0x82dbff562b4870e61a5941ef4da8dB4BCfc636A6",
        "41"
      ],
      "transaction": {
        "from": "0x3cee531d7d776d3370484a881be380dea317af9e",
        "to": "0x07959073f93d728e4e639e67e4f100ba999f9040",
        "gas": "0x206bd",
        "value": "0x0",
        "input": "0xdf791e50000000000000000000000000e171be09515e85ee9211381b5a0e8ddeb959f1af00000000000000000000000082dbff562b4870e61a5941ef4da8db4bcfc636a60000000000000000000000000000000000000000000000000000000000000029",
        "nonce": "0xd6",
        "chainId": "0xaa36a7"
      },
      "additionalContracts": [],
      "isFixedGasLimit": false
    },
    {
      "hash": "0x26d8080e0c9c4bbc8d306b65cdc48327e1fa1b0d253856143d86d3e20aa5e974",
      "transactionType": "CALL",
      "contractName": null,
      "contractAddress": "0x07959073f93d728e4e639e67e4f100ba999f9040",
      "function": "swap(address,address,uint256)",
      "arguments": [
        "0x82dbff562b4870e61a5941ef4da8dB4BCfc636A6",
        "0xe171Be09515e85eE9211381b5a0e8DdEB959f1af",
        "45"
      ],
      "transaction": {
        "from": "0x3cee531d7d776d3370484a881be380dea317af9e",
        "to": "0x07959073f93d728e4e639e67e4f100ba999f9040",
        "gas": "0x1ea9a",
        "value": "0x0",
        "input": "0xdf791e5000000000000000000000000082dbff562b4870e61a5941ef4da8db4bcfc636a6000000000000000000000000e171be09515e85ee9211381b5a0e8ddeb959f1af000000000000000000000000000000000000000000000000000000000000002d",
        "nonce": "0xd7",
        "chainId": "0xaa36a7"
      },
      "additionalContracts": [],
      "isFixedGasLimit": false
    }
  ],
  "receipts": [
    {
      "status": "0x1",
      "cumulativeGasUsed": "0x30c3f4",
      "logs": [
        {
          "address": "0xe171be09515e85ee9211381b5a0e8ddeb959f1af",
          "topics": [
            "0x8c5be1e5ebec7d5bd14f71427d1e84f3dd0314c0f7b2291e5b200ac8c7c3b925",
            "0x0000000000000000000000003cee531d7d776d3370484a881be380dea317af9e",
            "0x00000000000000000000000007959073f93d728e4e639e67e4f100ba999f9040"
          ],
          "data": "0x00000000000000000000000000000000000000000000000000000000000003e8",
          "blockHash": "0x4d2cefa59a7f357758d0eb5b201439d8e77282105cb3ccb169454a80e97cee55",
          "blockNumber": "0x69caf2",
          "transactionHash": "0x0ade45c86c0292a6102aca0af49b3f7a4dac1e6b3c69abb27889e2537f840638",
          "transactionIndex": "0x30",
          "logIndex": "0x2c",
          "removed": false
        },
        {
          "address": "0x82dbff562b4870e61a5941ef4da8db4bcfc636a6",
          "topics": [
            "0x8c5be1e5ebec7d5bd14f71427d1e84f3dd0314c0f7b2291e5b200ac8c7c3b925",
            "0x0000000000000000000000003cee531d7d776d3370484a881be380dea317af9e",
            "0x00000000000000000000000007959073f93d728e4e639e67e4f100ba999f9040"
          ],
          "data": "0x00000000000000000000000000000000000000000000000000000000000003e8",
          "blockHash": "0x4d2cefa59a7f357758d0eb5b201439d8e77282105cb3ccb169454a80e97cee55",
          "blockNumber": "0x69caf2",
          "transactionHash": "0x0ade45c86c0292a6102aca0af49b3f7a4dac1e6b3c69abb27889e2537f840638",
          "transactionIndex": "0x30",
          "logIndex": "0x2d",
          "removed": false
        }
      ],
      "logsBloom": "0x0002000000000000000000000000000000000000000000000000000000000000000000000000000000000000000000a020000000000000000000000000200000000000000000000000000000000000000000000000000000000000080000000000000080000000000000000100000000000000000000000000000000010000000000000000001000000000000000000000000000000000000000040000000000020000000000000000000000000000000000000000000000000000000000000000000000000000000000000000000000000000000000000000000000000000000010000000000000000000000000000000000000000000000000000000100040",
      "type": "0x2",
      "transactionHash": "0x0ade45c86c0292a6102aca0af49b3f7a4dac1e6b3c69abb27889e2537f840638",
      "transactionIndex": "0x30",
      "blockHash": "0x4d2cefa59a7f357758d0eb5b201439d8e77282105cb3ccb169454a80e97cee55",
      "blockNumber": "0x69caf2",
      "gasUsed": "0x14e8a",
      "effectiveGasPrice": "0x165a0ceb0",
      "from": "0x3cee531d7d776d3370484a881be380dea317af9e",
      "to": "0x07959073f93d728e4e639e67e4f100ba999f9040",
      "contractAddress": null
    },
    {
      "status": "0x1",
      "cumulativeGasUsed": "0x3535b0",
      "logs": [
        {
          "address": "0xe171be09515e85ee9211381b5a0e8ddeb959f1af",
          "topics": [
            "0x8c5be1e5ebec7d5bd14f71427d1e84f3dd0314c0f7b2291e5b200ac8c7c3b925",
            "0x0000000000000000000000003cee531d7d776d3370484a881be380dea317af9e",
            "0x00000000000000000000000007959073f93d728e4e639e67e4f100ba999f9040"
          ],
          "data": "0x00000000000000000000000000000000000000000000000000000000000003de",
          "blockHash": "0x4d2cefa59a7f357758d0eb5b201439d8e77282105cb3ccb169454a80e97cee55",
          "blockNumber": "0x69caf2",
          "transactionHash": "0x92ced43d6da28d447f6c451ef176c19fb277edd1f8aa8b9c2bded02f3ed10199",
          "transactionIndex": "0x32",
          "logIndex": "0x32",
          "removed": false
        },
        {
          "address": "0xe171be09515e85ee9211381b5a0e8ddeb959f1af",
          "topics": [
            "0xddf252ad1be2c89b69c2b068fc378daa952ba7f163c4a11628f55a4df523b3ef",
            "0x0000000000000000000000003cee531d7d776d3370484a881be380dea317af9e",
            "0x00000000000000000000000007959073f93d728e4e639e67e4f100ba999f9040"
          ],
          "data": "0x000000000000000000000000000000000000000000000000000000000000000a",
          "blockHash": "0x4d2cefa59a7f357758d0eb5b201439d8e77282105cb3ccb169454a80e97cee55",
          "blockNumber": "0x69caf2",
          "transactionHash": "0x92ced43d6da28d447f6c451ef176c19fb277edd1f8aa8b9c2bded02f3ed10199",
          "transactionIndex": "0x32",
          "logIndex": "0x33",
          "removed": false
        },
        {
          "address": "0x82dbff562b4870e61a5941ef4da8db4bcfc636a6",
          "topics": [
            "0x8c5be1e5ebec7d5bd14f71427d1e84f3dd0314c0f7b2291e5b200ac8c7c3b925",
            "0x00000000000000000000000007959073f93d728e4e639e67e4f100ba999f9040",
            "0x00000000000000000000000007959073f93d728e4e639e67e4f100ba999f9040"
          ],
          "data": "0x000000000000000000000000000000000000000000000000000000000000000a",
          "blockHash": "0x4d2cefa59a7f357758d0eb5b201439d8e77282105cb3ccb169454a80e97cee55",
          "blockNumber": "0x69caf2",
          "transactionHash": "0x92ced43d6da28d447f6c451ef176c19fb277edd1f8aa8b9c2bded02f3ed10199",
          "transactionIndex": "0x32",
          "logIndex": "0x34",
          "removed": false
        },
        {
          "address": "0x82dbff562b4870e61a5941ef4da8db4bcfc636a6",
          "topics": [
            "0x8c5be1e5ebec7d5bd14f71427d1e84f3dd0314c0f7b2291e5b200ac8c7c3b925",
            "0x00000000000000000000000007959073f93d728e4e639e67e4f100ba999f9040",
            "0x00000000000000000000000007959073f93d728e4e639e67e4f100ba999f9040"
          ],
          "data": "0x0000000000000000000000000000000000000000000000000000000000000000",
          "blockHash": "0x4d2cefa59a7f357758d0eb5b201439d8e77282105cb3ccb169454a80e97cee55",
          "blockNumber": "0x69caf2",
          "transactionHash": "0x92ced43d6da28d447f6c451ef176c19fb277edd1f8aa8b9c2bded02f3ed10199",
          "transactionIndex": "0x32",
          "logIndex": "0x35",
          "removed": false
        },
        {
          "address": "0x82dbff562b4870e61a5941ef4da8db4bcfc636a6",
          "topics": [
            "0xddf252ad1be2c89b69c2b068fc378daa952ba7f163c4a11628f55a4df523b3ef",
            "0x00000000000000000000000007959073f93d728e4e639e67e4f100ba999f9040",
            "0x0000000000000000000000003cee531d7d776d3370484a881be380dea317af9e"
          ],
          "data": "0x000000000000000000000000000000000000000000000000000000000000000a",
          "blockHash": "0x4d2cefa59a7f357758d0eb5b201439d8e77282105cb3ccb169454a80e97cee55",
          "blockNumber": "0x69caf2",
          "transactionHash": "0x92ced43d6da28d447f6c451ef176c19fb277edd1f8aa8b9c2bded02f3ed10199",
          "transactionIndex": "0x32",
          "logIndex": "0x36",
          "removed": false
        }
      ],
      "logsBloom": "0x0002000000000000000000000000000000000000000000000000000000000000000000000000000000000000000000a020000000000000000000000000200000000000000000000000000008000000000000000000000000000000080000000000000080000000000000000100000000000000000000000000000010010000000000000000001000000000000000000000000000000000000000040000000000020000000000000000000000000000000000000000000000000000000000000000000002000000000000000000000000000000000000000000000000000000000010000000000000000000000000000000000000000000000000000000100040",
      "type": "0x2",
      "transactionHash": "0x92ced43d6da28d447f6c451ef176c19fb277edd1f8aa8b9c2bded02f3ed10199",
      "transactionIndex": "0x32",
      "blockHash": "0x4d2cefa59a7f357758d0eb5b201439d8e77282105cb3ccb169454a80e97cee55",
      "blockNumber": "0x69caf2",
      "gasUsed": "0x12d42",
      "effectiveGasPrice": "0x165a0ceb0",
      "from": "0x3cee531d7d776d3370484a881be380dea317af9e",
      "to": "0x07959073f93d728e4e639e67e4f100ba999f9040",
      "contractAddress": null
    },
    {
      "status": "0x1",
      "cumulativeGasUsed": "0x3698e0",
      "logs": [
        {
          "address": "0x82dbff562b4870e61a5941ef4da8db4bcfc636a6",
          "topics": [
            "0x8c5be1e5ebec7d5bd14f71427d1e84f3dd0314c0f7b2291e5b200ac8c7c3b925",
            "0x0000000000000000000000003cee531d7d776d3370484a881be380dea317af9e",
            "0x00000000000000000000000007959073f93d728e4e639e67e4f100ba999f9040"
          ],
          "data": "0x00000000000000000000000000000000000000000000000000000000000003d4",
          "blockHash": "0x4d2cefa59a7f357758d0eb5b201439d8e77282105cb3ccb169454a80e97cee55",
          "blockNumber": "0x69caf2",
          "transactionHash": "0xd64907c851b73b853507ed1f045d0e6f9c6e774a661a9aa49d372ac2301133cf",
          "transactionIndex": "0x33",
          "logIndex": "0x37",
          "removed": false
        },
        {
          "address": "0x82dbff562b4870e61a5941ef4da8db4bcfc636a6",
          "topics": [
            "0xddf252ad1be2c89b69c2b068fc378daa952ba7f163c4a11628f55a4df523b3ef",
            "0x0000000000000000000000003cee531d7d776d3370484a881be380dea317af9e",
            "0x00000000000000000000000007959073f93d728e4e639e67e4f100ba999f9040"
          ],
          "data": "0x0000000000000000000000000000000000000000000000000000000000000014",
          "blockHash": "0x4d2cefa59a7f357758d0eb5b201439d8e77282105cb3ccb169454a80e97cee55",
          "blockNumber": "0x69caf2",
          "transactionHash": "0xd64907c851b73b853507ed1f045d0e6f9c6e774a661a9aa49d372ac2301133cf",
          "transactionIndex": "0x33",
          "logIndex": "0x38",
          "removed": false
        },
        {
          "address": "0xe171be09515e85ee9211381b5a0e8ddeb959f1af",
          "topics": [
            "0x8c5be1e5ebec7d5bd14f71427d1e84f3dd0314c0f7b2291e5b200ac8c7c3b925",
            "0x00000000000000000000000007959073f93d728e4e639e67e4f100ba999f9040",
            "0x00000000000000000000000007959073f93d728e4e639e67e4f100ba999f9040"
          ],
          "data": "0x0000000000000000000000000000000000000000000000000000000000000018",
          "blockHash": "0x4d2cefa59a7f357758d0eb5b201439d8e77282105cb3ccb169454a80e97cee55",
          "blockNumber": "0x69caf2",
          "transactionHash": "0xd64907c851b73b853507ed1f045d0e6f9c6e774a661a9aa49d372ac2301133cf",
          "transactionIndex": "0x33",
          "logIndex": "0x39",
          "removed": false
        },
        {
          "address": "0xe171be09515e85ee9211381b5a0e8ddeb959f1af",
          "topics": [
            "0x8c5be1e5ebec7d5bd14f71427d1e84f3dd0314c0f7b2291e5b200ac8c7c3b925",
            "0x00000000000000000000000007959073f93d728e4e639e67e4f100ba999f9040",
            "0x00000000000000000000000007959073f93d728e4e639e67e4f100ba999f9040"
          ],
          "data": "0x0000000000000000000000000000000000000000000000000000000000000000",
          "blockHash": "0x4d2cefa59a7f357758d0eb5b201439d8e77282105cb3ccb169454a80e97cee55",
          "blockNumber": "0x69caf2",
          "transactionHash": "0xd64907c851b73b853507ed1f045d0e6f9c6e774a661a9aa49d372ac2301133cf",
          "transactionIndex": "0x33",
          "logIndex": "0x3a",
          "removed": false
        },
        {
          "address": "0xe171be09515e85ee9211381b5a0e8ddeb959f1af",
          "topics": [
            "0xddf252ad1be2c89b69c2b068fc378daa952ba7f163c4a11628f55a4df523b3ef",
            "0x00000000000000000000000007959073f93d728e4e639e67e4f100ba999f9040",
            "0x0000000000000000000000003cee531d7d776d3370484a881be380dea317af9e"
          ],
          "data": "0x0000000000000000000000000000000000000000000000000000000000000018",
          "blockHash": "0x4d2cefa59a7f357758d0eb5b201439d8e77282105cb3ccb169454a80e97cee55",
          "blockNumber": "0x69caf2",
          "transactionHash": "0xd64907c851b73b853507ed1f045d0e6f9c6e774a661a9aa49d372ac2301133cf",
          "transactionIndex": "0x33",
          "logIndex": "0x3b",
          "removed": false
        }
      ],
      "logsBloom": "0x0002000000000000000000000000000000000000000000000000000000000000000000000000000000000000000000a020000000000000000000000000200000000000000000000000000008000000000000000000000000000000080000000000000080000000000000000100000000000000000000000000000010010000000000000000001000000000000000000000000000000000000000040000000000020000000000000000000000000000000000000000000000000000000000000000000002000000000000000000000000000000000000000000000000000000000010000000000000000000000000000000000000000000000000000000100040",
      "type": "0x2",
      "transactionHash": "0xd64907c851b73b853507ed1f045d0e6f9c6e774a661a9aa49d372ac2301133cf",
      "transactionIndex": "0x33",
      "blockHash": "0x4d2cefa59a7f357758d0eb5b201439d8e77282105cb3ccb169454a80e97cee55",
      "blockNumber": "0x69caf2",
      "gasUsed": "0x16330",
      "effectiveGasPrice": "0x165a0ceb0",
      "from": "0x3cee531d7d776d3370484a881be380dea317af9e",
      "to": "0x07959073f93d728e4e639e67e4f100ba999f9040",
      "contractAddress": null
    },
    {
      "status": "0x1",
      "cumulativeGasUsed": "0x37fb92",
      "logs": [
        {
          "address": "0xe171be09515e85ee9211381b5a0e8ddeb959f1af",
          "topics": [
            "0x8c5be1e5ebec7d5bd14f71427d1e84f3dd0314c0f7b2291e5b200ac8c7c3b925",
            "0x0000000000000000000000003cee531d7d776d3370484a881be380dea317af9e",
            "0x00000000000000000000000007959073f93d728e4e639e67e4f100ba999f9040"
          ],
          "data": "0x00000000000000000000000000000000000000000000000000000000000003c6",
          "blockHash": "0x4d2cefa59a7f357758d0eb5b201439d8e77282105cb3ccb169454a80e97cee55",
          "blockNumber": "0x69caf2",
          "transactionHash": "0xea441ac7b42d139b0dc8eca93e36cda8de3060489050589e9e998d515ba64118",
          "transactionIndex": "0x34",
          "logIndex": "0x3c",
          "removed": false
        },
        {
          "address": "0xe171be09515e85ee9211381b5a0e8ddeb959f1af",
          "topics": [
            "0xddf252ad1be2c89b69c2b068fc378daa952ba7f163c4a11628f55a4df523b3ef",
            "0x0000000000000000000000003cee531d7d776d3370484a881be380dea317af9e",
            "0x00000000000000000000000007959073f93d728e4e639e67e4f100ba999f9040"
          ],
          "data": "0x0000000000000000000000000000000000000000000000000000000000000018",
          "blockHash": "0x4d2cefa59a7f357758d0eb5b201439d8e77282105cb3ccb169454a80e97cee55",
          "blockNumber": "0x69caf2",
          "transactionHash": "0xea441ac7b42d139b0dc8eca93e36cda8de3060489050589e9e998d515ba64118",
          "transactionIndex": "0x34",
          "logIndex": "0x3d",
          "removed": false
        },
        {
          "address": "0x82dbff562b4870e61a5941ef4da8db4bcfc636a6",
          "topics": [
            "0x8c5be1e5ebec7d5bd14f71427d1e84f3dd0314c0f7b2291e5b200ac8c7c3b925",
            "0x00000000000000000000000007959073f93d728e4e639e67e4f100ba999f9040",
            "0x00000000000000000000000007959073f93d728e4e639e67e4f100ba999f9040"
          ],
          "data": "0x000000000000000000000000000000000000000000000000000000000000001e",
          "blockHash": "0x4d2cefa59a7f357758d0eb5b201439d8e77282105cb3ccb169454a80e97cee55",
          "blockNumber": "0x69caf2",
          "transactionHash": "0xea441ac7b42d139b0dc8eca93e36cda8de3060489050589e9e998d515ba64118",
          "transactionIndex": "0x34",
          "logIndex": "0x3e",
          "removed": false
        },
        {
          "address": "0x82dbff562b4870e61a5941ef4da8db4bcfc636a6",
          "topics": [
            "0x8c5be1e5ebec7d5bd14f71427d1e84f3dd0314c0f7b2291e5b200ac8c7c3b925",
            "0x00000000000000000000000007959073f93d728e4e639e67e4f100ba999f9040",
            "0x00000000000000000000000007959073f93d728e4e639e67e4f100ba999f9040"
          ],
          "data": "0x0000000000000000000000000000000000000000000000000000000000000000",
          "blockHash": "0x4d2cefa59a7f357758d0eb5b201439d8e77282105cb3ccb169454a80e97cee55",
          "blockNumber": "0x69caf2",
          "transactionHash": "0xea441ac7b42d139b0dc8eca93e36cda8de3060489050589e9e998d515ba64118",
          "transactionIndex": "0x34",
          "logIndex": "0x3f",
          "removed": false
        },
        {
          "address": "0x82dbff562b4870e61a5941ef4da8db4bcfc636a6",
          "topics": [
            "0xddf252ad1be2c89b69c2b068fc378daa952ba7f163c4a11628f55a4df523b3ef",
            "0x00000000000000000000000007959073f93d728e4e639e67e4f100ba999f9040",
            "0x0000000000000000000000003cee531d7d776d3370484a881be380dea317af9e"
          ],
          "data": "0x000000000000000000000000000000000000000000000000000000000000001e",
          "blockHash": "0x4d2cefa59a7f357758d0eb5b201439d8e77282105cb3ccb169454a80e97cee55",
          "blockNumber": "0x69caf2",
          "transactionHash": "0xea441ac7b42d139b0dc8eca93e36cda8de3060489050589e9e998d515ba64118",
          "transactionIndex": "0x34",
          "logIndex": "0x40",
          "removed": false
        }
      ],
      "logsBloom": "0x0002000000000000000000000000000000000000000000000000000000000000000000000000000000000000000000a020000000000000000000000000200000000000000000000000000008000000000000000000000000000000080000000000000080000000000000000100000000000000000000000000000010010000000000000000001000000000000000000000000000000000000000040000000000020000000000000000000000000000000000000000000000000000000000000000000002000000000000000000000000000000000000000000000000000000000010000000000000000000000000000000000000000000000000000000100040",
      "type": "0x2",
      "transactionHash": "0xea441ac7b42d139b0dc8eca93e36cda8de3060489050589e9e998d515ba64118",
      "transactionIndex": "0x34",
      "blockHash": "0x4d2cefa59a7f357758d0eb5b201439d8e77282105cb3ccb169454a80e97cee55",
      "blockNumber": "0x69caf2",
      "gasUsed": "0x162b2",
      "effectiveGasPrice": "0x165a0ceb0",
      "from": "0x3cee531d7d776d3370484a881be380dea317af9e",
      "to": "0x07959073f93d728e4e639e67e4f100ba999f9040",
      "contractAddress": null
    },
    {
      "status": "0x1",
      "cumulativeGasUsed": "0x395ec2",
      "logs": [
        {
          "address": "0x82dbff562b4870e61a5941ef4da8db4bcfc636a6",
          "topics": [
            "0x8c5be1e5ebec7d5bd14f71427d1e84f3dd0314c0f7b2291e5b200ac8c7c3b925",
            "0x0000000000000000000000003cee531d7d776d3370484a881be380dea317af9e",
            "0x00000000000000000000000007959073f93d728e4e639e67e4f100ba999f9040"
          ],
          "data": "0x00000000000000000000000000000000000000000000000000000000000003b6",
          "blockHash": "0x4d2cefa59a7f357758d0eb5b201439d8e77282105cb3ccb169454a80e97cee55",
          "blockNumber": "0x69caf2",
          "transactionHash": "0x4aade53b70e5e783e400d0b0f28c23eb49d9ae63d09b23eda27b16c1f5b7444d",
          "transactionIndex": "0x35",
          "logIndex": "0x41",
          "removed": false
        },
        {
          "address": "0x82dbff562b4870e61a5941ef4da8db4bcfc636a6",
          "topics": [
            "0xddf252ad1be2c89b69c2b068fc378daa952ba7f163c4a11628f55a4df523b3ef",
            "0x0000000000000000000000003cee531d7d776d3370484a881be380dea317af9e",
            "0x00000000000000000000000007959073f93d728e4e639e67e4f100ba999f9040"
          ],
          "data": "0x000000000000000000000000000000000000000000000000000000000000001e",
          "blockHash": "0x4d2cefa59a7f357758d0eb5b201439d8e77282105cb3ccb169454a80e97cee55",
          "blockNumber": "0x69caf2",
          "transactionHash": "0x4aade53b70e5e783e400d0b0f28c23eb49d9ae63d09b23eda27b16c1f5b7444d",
          "transactionIndex": "0x35",
          "logIndex": "0x42",
          "removed": false
        },
        {
          "address": "0xe171be09515e85ee9211381b5a0e8ddeb959f1af",
          "topics": [
            "0x8c5be1e5ebec7d5bd14f71427d1e84f3dd0314c0f7b2291e5b200ac8c7c3b925",
            "0x00000000000000000000000007959073f93d728e4e639e67e4f100ba999f9040",
            "0x00000000000000000000000007959073f93d728e4e639e67e4f100ba999f9040"
          ],
          "data": "0x0000000000000000000000000000000000000000000000000000000000000029",
          "blockHash": "0x4d2cefa59a7f357758d0eb5b201439d8e77282105cb3ccb169454a80e97cee55",
          "blockNumber": "0x69caf2",
          "transactionHash": "0x4aade53b70e5e783e400d0b0f28c23eb49d9ae63d09b23eda27b16c1f5b7444d",
          "transactionIndex": "0x35",
          "logIndex": "0x43",
          "removed": false
        },
        {
          "address": "0xe171be09515e85ee9211381b5a0e8ddeb959f1af",
          "topics": [
            "0x8c5be1e5ebec7d5bd14f71427d1e84f3dd0314c0f7b2291e5b200ac8c7c3b925",
            "0x00000000000000000000000007959073f93d728e4e639e67e4f100ba999f9040",
            "0x00000000000000000000000007959073f93d728e4e639e67e4f100ba999f9040"
          ],
          "data": "0x0000000000000000000000000000000000000000000000000000000000000000",
          "blockHash": "0x4d2cefa59a7f357758d0eb5b201439d8e77282105cb3ccb169454a80e97cee55",
          "blockNumber": "0x69caf2",
          "transactionHash": "0x4aade53b70e5e783e400d0b0f28c23eb49d9ae63d09b23eda27b16c1f5b7444d",
          "transactionIndex": "0x35",
          "logIndex": "0x44",
          "removed": false
        },
        {
          "address": "0xe171be09515e85ee9211381b5a0e8ddeb959f1af",
          "topics": [
            "0xddf252ad1be2c89b69c2b068fc378daa952ba7f163c4a11628f55a4df523b3ef",
            "0x00000000000000000000000007959073f93d728e4e639e67e4f100ba999f9040",
            "0x0000000000000000000000003cee531d7d776d3370484a881be380dea317af9e"
          ],
          "data": "0x0000000000000000000000000000000000000000000000000000000000000029",
          "blockHash": "0x4d2cefa59a7f357758d0eb5b201439d8e77282105cb3ccb169454a80e97cee55",
          "blockNumber": "0x69caf2",
          "transactionHash": "0x4aade53b70e5e783e400d0b0f28c23eb49d9ae63d09b23eda27b16c1f5b7444d",
          "transactionIndex": "0x35",
          "logIndex": "0x45",
          "removed": false
        }
      ],
      "logsBloom": "0x0002000000000000000000000000000000000000000000000000000000000000000000000000000000000000000000a020000000000000000000000000200000000000000000000000000008000000000000000000000000000000080000000000000080000000000000000100000000000000000000000000000010010000000000000000001000000000000000000000000000000000000000040000000000020000000000000000000000000000000000000000000000000000000000000000000002000000000000000000000000000000000000000000000000000000000010000000000000000000000000000000000000000000000000000000100040",
      "type": "0x2",
      "transactionHash": "0x4aade53b70e5e783e400d0b0f28c23eb49d9ae63d09b23eda27b16c1f5b7444d",
      "transactionIndex": "0x35",
      "blockHash": "0x4d2cefa59a7f357758d0eb5b201439d8e77282105cb3ccb169454a80e97cee55",
      "blockNumber": "0x69caf2",
      "gasUsed": "0x16330",
      "effectiveGasPrice": "0x165a0ceb0",
      "from": "0x3cee531d7d776d3370484a881be380dea317af9e",
      "to": "0x07959073f93d728e4e639e67e4f100ba999f9040",
      "contractAddress": null
    },
    {
      "status": "0x1",
      "cumulativeGasUsed": "0x3ac174",
      "logs": [
        {
          "address": "0xe171be09515e85ee9211381b5a0e8ddeb959f1af",
          "topics": [
            "0x8c5be1e5ebec7d5bd14f71427d1e84f3dd0314c0f7b2291e5b200ac8c7c3b925",
            "0x0000000000000000000000003cee531d7d776d3370484a881be380dea317af9e",
            "0x00000000000000000000000007959073f93d728e4e639e67e4f100ba999f9040"
          ],
          "data": "0x000000000000000000000000000000000000000000000000000000000000039d",
          "blockHash": "0x4d2cefa59a7f357758d0eb5b201439d8e77282105cb3ccb169454a80e97cee55",
          "blockNumber": "0x69caf2",
          "transactionHash": "0xf9c539d9046bd20023a4b409268442d696f338787d6a4bd7ad6dcfee3706a260",
          "transactionIndex": "0x36",
          "logIndex": "0x46",
          "removed": false
        },
        {
          "address": "0xe171be09515e85ee9211381b5a0e8ddeb959f1af",
          "topics": [
            "0xddf252ad1be2c89b69c2b068fc378daa952ba7f163c4a11628f55a4df523b3ef",
            "0x0000000000000000000000003cee531d7d776d3370484a881be380dea317af9e",
            "0x00000000000000000000000007959073f93d728e4e639e67e4f100ba999f9040"
          ],
          "data": "0x0000000000000000000000000000000000000000000000000000000000000029",
          "blockHash": "0x4d2cefa59a7f357758d0eb5b201439d8e77282105cb3ccb169454a80e97cee55",
          "blockNumber": "0x69caf2",
          "transactionHash": "0xf9c539d9046bd20023a4b409268442d696f338787d6a4bd7ad6dcfee3706a260",
          "transactionIndex": "0x36",
          "logIndex": "0x47",
          "removed": false
        },
        {
          "address": "0x82dbff562b4870e61a5941ef4da8db4bcfc636a6",
          "topics": [
            "0x8c5be1e5ebec7d5bd14f71427d1e84f3dd0314c0f7b2291e5b200ac8c7c3b925",
            "0x00000000000000000000000007959073f93d728e4e639e67e4f100ba999f9040",
            "0x00000000000000000000000007959073f93d728e4e639e67e4f100ba999f9040"
          ],
          "data": "0x0000000000000000000000000000000000000000000000000000000000000041",
          "blockHash": "0x4d2cefa59a7f357758d0eb5b201439d8e77282105cb3ccb169454a80e97cee55",
          "blockNumber": "0x69caf2",
          "transactionHash": "0xf9c539d9046bd20023a4b409268442d696f338787d6a4bd7ad6dcfee3706a260",
          "transactionIndex": "0x36",
          "logIndex": "0x48",
          "removed": false
        },
        {
          "address": "0x82dbff562b4870e61a5941ef4da8db4bcfc636a6",
          "topics": [
            "0x8c5be1e5ebec7d5bd14f71427d1e84f3dd0314c0f7b2291e5b200ac8c7c3b925",
            "0x00000000000000000000000007959073f93d728e4e639e67e4f100ba999f9040",
            "0x00000000000000000000000007959073f93d728e4e639e67e4f100ba999f9040"
          ],
          "data": "0x0000000000000000000000000000000000000000000000000000000000000000",
          "blockHash": "0x4d2cefa59a7f357758d0eb5b201439d8e77282105cb3ccb169454a80e97cee55",
          "blockNumber": "0x69caf2",
          "transactionHash": "0xf9c539d9046bd20023a4b409268442d696f338787d6a4bd7ad6dcfee3706a260",
          "transactionIndex": "0x36",
          "logIndex": "0x49",
          "removed": false
        },
        {
          "address": "0x82dbff562b4870e61a5941ef4da8db4bcfc636a6",
          "topics": [
            "0xddf252ad1be2c89b69c2b068fc378daa952ba7f163c4a11628f55a4df523b3ef",
            "0x00000000000000000000000007959073f93d728e4e639e67e4f100ba999f9040",
            "0x0000000000000000000000003cee531d7d776d3370484a881be380dea317af9e"
          ],
          "data": "0x0000000000000000000000000000000000000000000000000000000000000041",
          "blockHash": "0x4d2cefa59a7f357758d0eb5b201439d8e77282105cb3ccb169454a80e97cee55",
          "blockNumber": "0x69caf2",
          "transactionHash": "0xf9c539d9046bd20023a4b409268442d696f338787d6a4bd7ad6dcfee3706a260",
          "transactionIndex": "0x36",
          "logIndex": "0x4a",
          "removed": false
        }
      ],
      "logsBloom": "0x0002000000000000000000000000000000000000000000000000000000000000000000000000000000000000000000a020000000000000000000000000200000000000000000000000000008000000000000000000000000000000080000000000000080000000000000000100000000000000000000000000000010010000000000000000001000000000000000000000000000000000000000040000000000020000000000000000000000000000000000000000000000000000000000000000000002000000000000000000000000000000000000000000000000000000000010000000000000000000000000000000000000000000000000000000100040",
      "type": "0x2",
      "transactionHash": "0xf9c539d9046bd20023a4b409268442d696f338787d6a4bd7ad6dcfee3706a260",
      "transactionIndex": "0x36",
      "blockHash": "0x4d2cefa59a7f357758d0eb5b201439d8e77282105cb3ccb169454a80e97cee55",
      "blockNumber": "0x69caf2",
      "gasUsed": "0x162b2",
      "effectiveGasPrice": "0x165a0ceb0",
      "from": "0x3cee531d7d776d3370484a881be380dea317af9e",
      "to": "0x07959073f93d728e4e639e67e4f100ba999f9040",
      "contractAddress": null
    },
    {
      "status": "0x1",
      "cumulativeGasUsed": "0x3c24a4",
      "logs": [
        {
          "address": "0x82dbff562b4870e61a5941ef4da8db4bcfc636a6",
          "topics": [
            "0x8c5be1e5ebec7d5bd14f71427d1e84f3dd0314c0f7b2291e5b200ac8c7c3b925",
            "0x0000000000000000000000003cee531d7d776d3370484a881be380dea317af9e",
            "0x00000000000000000000000007959073f93d728e4e639e67e4f100ba999f9040"
          ],
          "data": "0x0000000000000000000000000000000000000000000000000000000000000389",
          "blockHash": "0x4d2cefa59a7f357758d0eb5b201439d8e77282105cb3ccb169454a80e97cee55",
          "blockNumber": "0x69caf2",
          "transactionHash": "0x26d8080e0c9c4bbc8d306b65cdc48327e1fa1b0d253856143d86d3e20aa5e974",
          "transactionIndex": "0x37",
          "logIndex": "0x4b",
          "removed": false
        },
        {
          "address": "0x82dbff562b4870e61a5941ef4da8db4bcfc636a6",
          "topics": [
            "0xddf252ad1be2c89b69c2b068fc378daa952ba7f163c4a11628f55a4df523b3ef",
            "0x0000000000000000000000003cee531d7d776d3370484a881be380dea317af9e",
            "0x00000000000000000000000007959073f93d728e4e639e67e4f100ba999f9040"
          ],
          "data": "0x000000000000000000000000000000000000000000000000000000000000002d",
          "blockHash": "0x4d2cefa59a7f357758d0eb5b201439d8e77282105cb3ccb169454a80e97cee55",
          "blockNumber": "0x69caf2",
          "transactionHash": "0x26d8080e0c9c4bbc8d306b65cdc48327e1fa1b0d253856143d86d3e20aa5e974",
          "transactionIndex": "0x37",
          "logIndex": "0x4c",
          "removed": false
        },
        {
          "address": "0xe171be09515e85ee9211381b5a0e8ddeb959f1af",
          "topics": [
            "0x8c5be1e5ebec7d5bd14f71427d1e84f3dd0314c0f7b2291e5b200ac8c7c3b925",
            "0x00000000000000000000000007959073f93d728e4e639e67e4f100ba999f9040",
            "0x00000000000000000000000007959073f93d728e4e639e67e4f100ba999f9040"
          ],
          "data": "0x000000000000000000000000000000000000000000000000000000000000006e",
          "blockHash": "0x4d2cefa59a7f357758d0eb5b201439d8e77282105cb3ccb169454a80e97cee55",
          "blockNumber": "0x69caf2",
          "transactionHash": "0x26d8080e0c9c4bbc8d306b65cdc48327e1fa1b0d253856143d86d3e20aa5e974",
          "transactionIndex": "0x37",
          "logIndex": "0x4d",
          "removed": false
        },
        {
          "address": "0xe171be09515e85ee9211381b5a0e8ddeb959f1af",
          "topics": [
            "0x8c5be1e5ebec7d5bd14f71427d1e84f3dd0314c0f7b2291e5b200ac8c7c3b925",
            "0x00000000000000000000000007959073f93d728e4e639e67e4f100ba999f9040",
            "0x00000000000000000000000007959073f93d728e4e639e67e4f100ba999f9040"
          ],
          "data": "0x0000000000000000000000000000000000000000000000000000000000000000",
          "blockHash": "0x4d2cefa59a7f357758d0eb5b201439d8e77282105cb3ccb169454a80e97cee55",
          "blockNumber": "0x69caf2",
          "transactionHash": "0x26d8080e0c9c4bbc8d306b65cdc48327e1fa1b0d253856143d86d3e20aa5e974",
          "transactionIndex": "0x37",
          "logIndex": "0x4e",
          "removed": false
        },
        {
          "address": "0xe171be09515e85ee9211381b5a0e8ddeb959f1af",
          "topics": [
            "0xddf252ad1be2c89b69c2b068fc378daa952ba7f163c4a11628f55a4df523b3ef",
            "0x00000000000000000000000007959073f93d728e4e639e67e4f100ba999f9040",
            "0x0000000000000000000000003cee531d7d776d3370484a881be380dea317af9e"
          ],
          "data": "0x000000000000000000000000000000000000000000000000000000000000006e",
          "blockHash": "0x4d2cefa59a7f357758d0eb5b201439d8e77282105cb3ccb169454a80e97cee55",
          "blockNumber": "0x69caf2",
          "transactionHash": "0x26d8080e0c9c4bbc8d306b65cdc48327e1fa1b0d253856143d86d3e20aa5e974",
          "transactionIndex": "0x37",
          "logIndex": "0x4f",
          "removed": false
        }
      ],
      "logsBloom": "0x0002000000000000000000000000000000000000000000000000000000000000000000000000000000000000000000a020000000000000000000000000200000000000000000000000000008000000000000000000000000000000080000000000000080000000000000000100000000000000000000000000000010010000000000000000001000000000000000000000000000000000000000040000000000020000000000000000000000000000000000000000000000000000000000000000000002000000000000000000000000000000000000000000000000000000000010000000000000000000000000000000000000000000000000000000100040",
      "type": "0x2",
      "transactionHash": "0x26d8080e0c9c4bbc8d306b65cdc48327e1fa1b0d253856143d86d3e20aa5e974",
      "transactionIndex": "0x37",
      "blockHash": "0x4d2cefa59a7f357758d0eb5b201439d8e77282105cb3ccb169454a80e97cee55",
      "blockNumber": "0x69caf2",
      "gasUsed": "0x16330",
      "effectiveGasPrice": "0x165a0ceb0",
      "from": "0x3cee531d7d776d3370484a881be380dea317af9e",
      "to": "0x07959073f93d728e4e639e67e4f100ba999f9040",
      "contractAddress": null
    }
  ],
  "libraries": [],
  "pending": [],
  "returns": {},
  "timestamp": 1729739454,
  "chain": 11155111,
  "commit": "c522d68"
}