{
  "transactions": [
    {
      "hash": "0x02384f43709e969f7679fcbd82392af7daec1474229c7ef7582baab77612740e",
      "transactionType": "CREATE",
      "contractName": "Denial_exp",
      "contractAddress": "0x1e2f022a53ea59045585010b9118555ebeac9715",
      "function": null,
      "arguments": null,
      "transaction": {
        "from": "0x3cee531d7d776d3370484a881be380dea317af9e",
        "gas": "0x15e46",
        "value": "0x0",
        "input": "0x6080604052348015600f57600080fd5b50604880601d6000396000f3fe608060405236600d57600080fd5b600080fdfea264697066735822122024b0f602a094d952b3f1bb20f5d24f687600388439f78cfbfaa58b001cde578b64736f6c63430008140033",
        "nonce": "0xc9",
        "chainId": "0xaa36a7"
      },
      "additionalContracts": [],
      "isFixedGasLimit": false
    },
    {
      "hash": "0xa8fd43603974896f516de3c33f735d26baae445ad31c6d774fb92e79fbeef79e",
      "transactionType": "CALL",
      "contractName": null,
      "contractAddress": "0x613f2f3047253e5e7ea3f66720266ec8615825bd",
      "function": "setWithdrawPartner(address)",
      "arguments": [
        "0x1e2F022A53eA59045585010b9118555EBEAc9715"
      ],
      "transaction": {
        "from": "0x3cee531d7d776d3370484a881be380dea317af9e",
        "to": "0x613f2f3047253e5e7ea3f66720266ec8615825bd",
        "gas": "0xecaa",
        "value": "0x0",
        "input": "0x4e1c59140000000000000000000000001e2f022a53ea59045585010b9118555ebeac9715",
        "nonce": "0xca",
        "chainId": "0xaa36a7"
      },
      "additionalContracts": [],
      "isFixedGasLimit": false
    }
  ],
  "receipts": [
    {
      "status": "0x1",
      "cumulativeGasUsed": "0xaea537",
      "logs": [],
      "logsBloom": "0x00000000000000000000000000000000000000000000000000000000000000000000000000000000000000000000000000000000000000000000000000000000000000000000000000000000000000000000000000000000000000000000000000000000000000000000000000000000000000000000000000000000000000000000000000000000000000000000000000000000000000000000000000000000000000000000000000000000000000000000000000000000000000000000000000000000000000000000000000000000000000000000000000000000000000000000000000000000000000000000000000000000000000000000000000000000",
      "type": "0x2",
      "transactionHash": "0x02384f43709e969f7679fcbd82392af7daec1474229c7ef7582baab77612740e",
      "transactionIndex": "0x6b",
      "blockHash": "0x2b6a962d5b5599b92e59150991b4e311fd1d87899b8f02e6912db0824b9d180b",
      "blockNumber": "0x69b734",
      "gasUsed": "0x10d79",
      "effectiveGasPrice": "0x2223e2772",
      "from": "0x3cee531d7d776d3370484a881be380dea317af9e",
      "to": null,
      "contractAddress": "0x1e2f022a53ea59045585010b9118555ebeac9715"
    },
    {
      "status": "0x1",
      "cumulativeGasUsed": "0xaf508f",
      "logs": [],
      "logsBloom": "0x00000000000000000000000000000000000000000000000000000000000000000000000000000000000000000000000000000000000000000000000000000000000000000000000000000000000000000000000000000000000000000000000000000000000000000000000000000000000000000000000000000000000000000000000000000000000000000000000000000000000000000000000000000000000000000000000000000000000000000000000000000000000000000000000000000000000000000000000000000000000000000000000000000000000000000000000000000000000000000000000000000000000000000000000000000000",
      "type": "0x2",
      "transactionHash": "0xa8fd43603974896f516de3c33f735d26baae445ad31c6d774fb92e79fbeef79e",
      "transactionIndex": "0x6c",
      "blockHash": "0x2b6a962d5b5599b92e59150991b4e311fd1d87899b8f02e6912db0824b9d180b",
      "blockNumber": "0x69b734",
      "gasUsed": "0xab58",
      "effectiveGasPrice": "0x2223e2772",
      "from": "0x3cee531d7d776d3370484a881be380dea317af9e",
      "to": "0x613f2f3047253e5e7ea3f66720266ec8615825bd",
      "contractAddress": null
    }
  ],
  "libraries": [],
  "pending": [],
  "returns": {},
  "timestamp": 1729674353,
  "chain": 11155111,
  "commit": "c522d68"
}