{
  "transactions": [
    {
      "hash": "0x59a9fbcbacb9af97fced86f463482a263303a16963798c4750b492ae0a75025e",
      "transactionType": "CREATE",
      "contractName": "Denial_exp",
      "contractAddress": "0xf1331e70ce6ee724af8d514753cb7f23bf50a43e",
      "function": null,
      "arguments": null,
      "transaction": {
        "from": "0x3cee531d7d776d3370484a881be380dea317af9e",
        "gas": "0x15e74",
        "value": "0x0",
        "input": "0x6080604052348015600f57600080fd5b50604880601d6000396000f3fe608060405236600d575b6009565b600080fdfea264697066735822122057eebb28f95aaecf0131a58e4b04aebda569d48b22403dd01a141403d145c6dd64736f6c63430008140033",
        "nonce": "0xcd",
        "chainId": "0xaa36a7"
      },
      "additionalContracts": [],
      "isFixedGasLimit": false
    },
    {
      "hash": "0xaecea81be5e39cd48e5c1dfe824c3378a680f2f703a609c6a8b1247434415901",
      "transactionType": "CALL",
      "contractName": null,
      "contractAddress": "0x613f2f3047253e5e7ea3f66720266ec8615825bd",
      "function": "setWithdrawPartner(address)",
      "arguments": [
        "0xF1331e70cE6eE724Af8D514753Cb7F23Bf50A43e"
      ],
      "transaction": {
        "from": "0x3cee531d7d776d3370484a881be380dea317af9e",
        "to": "0x613f2f3047253e5e7ea3f66720266ec8615825bd",
        "gas": "0x9066",
        "value": "0x0",
        "input": "0x4e1c5914000000000000000000000000f1331e70ce6ee724af8d514753cb7f23bf50a43e",
        "nonce": "0xce",
        "chainId": "0xaa36a7"
      },
      "additionalContracts": [],
      "isFixedGasLimit": false
    }
  ],
  "receipts": [
    {
      "status": "0x1",
      "cumulativeGasUsed": "0x696259",
      "logs": [],
      "logsBloom": "0x00000000000000000000000000000000000000000000000000000000000000000000000000000000000000000000000000000000000000000000000000000000000000000000000000000000000000000000000000000000000000000000000000000000000000000000000000000000000000000000000000000000000000000000000000000000000000000000000000000000000000000000000000000000000000000000000000000000000000000000000000000000000000000000000000000000000000000000000000000000000000000000000000000000000000000000000000000000000000000000000000000000000000000000000000000000",
      "type": "0x2",
      "transactionHash": "0x59a9fbcbacb9af97fced86f463482a263303a16963798c4750b492ae0a75025e",
      "transactionIndex": "0x3f",
      "blockHash": "0x69d92fb51b46f5d01658506977cc0e014bc2c8768348270af4ef483d54369f79",
      "blockNumber": "0x69b78f",
      "gasUsed": "0x10d9d",
      "effectiveGasPrice": "0x13e4e6ad1",
      "from": "0x3cee531d7d776d3370484a881be380dea317af9e",
      "to": null,
      "contractAddress": "0xf1331e70ce6ee724af8d514753cb7f23bf50a43e"
    },
    {
      "status": "0x1",
      "cumulativeGasUsed": "0x69cae5",
      "logs": [],
      "logsBloom": "0x00000000000000000000000000000000000000000000000000000000000000000000000000000000000000000000000000000000000000000000000000000000000000000000000000000000000000000000000000000000000000000000000000000000000000000000000000000000000000000000000000000000000000000000000000000000000000000000000000000000000000000000000000000000000000000000000000000000000000000000000000000000000000000000000000000000000000000000000000000000000000000000000000000000000000000000000000000000000000000000000000000000000000000000000000000000",
      "type": "0x2",
      "transactionHash": "0xaecea81be5e39cd48e5c1dfe824c3378a680f2f703a609c6a8b1247434415901",
      "transactionIndex": "0x40",
      "blockHash": "0x69d92fb51b46f5d01658506977cc0e014bc2c8768348270af4ef483d54369f79",
      "blockNumber": "0x69b78f",
      "gasUsed": "0x688c",
      "effectiveGasPrice": "0x13e4e6ad1",
      "from": "0x3cee531d7d776d3370484a881be380dea317af9e",
      "to": "0x613f2f3047253e5e7ea3f66720266ec8615825bd",
      "contractAddress": null
    }
  ],
  "libraries": [],
  "pending": [],
  "returns": {},
  "timestamp": 1729675637,
  "chain": 11155111,
  "commit": "c522d68"
}